:020000040804EE
:10000000A08F01207D0204088B0204088D020408E1
:100010008F0204089102040893020408EA04060807
:10002000000000000000000000000000970204082B
:1000300099020408000000009B0204089D020408C5
:100040009F020408A1020408A3020408ADE8040802
:10005000A7020408A9020408AB020408AD020408C0
:10006000AF020408B1020408B3020408B502040890
:10007000B7020408B9020408B16E0408D96E040876
:10008000BF020408016F0408C30204084D2A0408D3
:1000900031290408C9020408CB020408CD0204086F
:1000A000F10F0508B110050851100508D502040824
:1000B00059110508A5110508F9110508DD02040804
:1000C000DF020408E1020408E3020408E502040870
:1000D000E70204085D1A0508EB020408D91A0508AE
:1000E000EF02040819E80408F3020408591305088C
:1000F00019140508B9130508FB0204081D6F04084C
:10010000FF0204085DF004085912050805030408FD
:10011000D517050809030408B91205080D030408DA
:100120000F0304081103040813030408150304084B
:1001300017030408F57B04081B0304081D030408C7
:100140001F0304082103040823030408C5BC040892
:1001500027030408396F0408596F04082D030408A5
:100160002F0304083103040833030408350304088B
:1001700037030408390304083B0304083D0304085B
:100180003F0304084103040800F002F800F067F898
:100190000AA090E8000C82448344AAF10107DA45E2
:1001A00001D100F05CF8AFF2090EBAE80F0013F0CD
:1001B000010F18BFFB1A43F001031847440A02005D
:1001C000640A02000A444FF0000C10F8013B13F0DF
:1001D000070408BF10F8014B1D1108BF10F8015BA0
:1001E000641E05D010F8016B641E01F8016BF9D193
:1001F00013F0080F1EBF10F8014BAD1C0C1B09D1EA
:100200006D1E58BF01F801CBFAD505E014F8016B5B
:1002100001F8016B6D1EF9D59142D6D370470000ED
:100220000023002400250026103A28BF78C1FBD8FF
:10023000520728BF30C148BF0B607047642900F0E7
:100240000181782900F03A81732900F03883002079
:1002500070471FB520F03FF91FBD10B510BD00F06D
:1002600061FB1146FFF7F5FF19F0AEFD00F07FFBD3
:1002700003B4FFF7F2FF03BC15F080FB34480168BC
:1002800041F47001016033480047FEE7FEE7FEE7F6
:10029000FEE7FEE7FEE7FEE7FEE7FEE7FEE7FEE736
:1002A000FEE7FEE7FEE7FEE7FEE7FEE7FEE7FEE726
:1002B000FEE7FEE7FEE7FEE7FEE7FEE7FEE7FEE716
:1002C000FEE7FEE7FEE7FEE7FEE7FEE7FEE7FEE706
:1002D000FEE7FEE7FEE7FEE7FEE7FEE7FEE7FEE7F6
:1002E000FEE7FEE7FEE7FEE7FEE7FEE7FEE7FEE7E6
:1002F000FEE7FEE7FEE7FEE7FEE7FEE7FEE7FEE7D6
:10030000FEE7FEE7FEE7FEE7FEE7FEE7FEE7FEE7C5
:10031000FEE7FEE7FEE7FEE7FEE7FEE7FEE7FEE7B5
:10032000FEE7FEE7FEE7FEE7FEE7FEE7FEE7FEE7A5
:10033000FEE7FEE7FEE7FEE7FEE7FEE7FEE7FEE795
:10034000FEE7000004480549034A054B70470000DA
:1003500088ED00E089010408A05B0120A08F012046
:10036000A05B01207047B2F120030AD5C2F120033F
:1003700020FA02F001FA03F321FA02F140EA030045
:10038000704721FA03F04FF0000170470FB40449A1
:1003900010B503AA029800F097FA10BC5DF814FBA0
:1003A0001802002070B5044685690068C10601D5B1
:1003B000302600E02026C00707D070BDD4E9012117
:1003C00030469047206A401C20626D1EF6D570BDF5
:1003D00070B5044685690078C00707D170BDD4E9BF
:1003E000012120209047206A401C20626D1EF6D516
:1003F00070BD70B50C460546012A05D028788006E8
:1004000000D5EA69002302E0012305E05B1C93426A
:1004100002D2E05C0028F9D1A869E618C01AA861E8
:10042000286A184428622846FFF7BCFF04E0D5E993
:10043000012114F8010B9047B442F8D32846FFF786
:10044000C7FF70BD2DE9F0410646002410687529EC
:10045000314616A510D0AFF30080002802DA4042E2
:1004600013A507E031688A0701D512A502E0490704
:1004700004D511A5012401E0AFF3008000210A2278
:1004800006F1240709E0B0FBF2FCB0FBF2F302FB3B
:100490001C00303078541846491C0028F3D12346FC
:1004A0002A463046BDE8F04100F09EB90000000049
:1004B0002D0000002B0000002000000070B5044655
:1004C0000D4621461068AFF300802188090502D54A
:1004D0000F4A7A4402E00E4A7A440E32002104F1B7
:1004E000240305E000F00F060009965D5E54491CE8
:1004F0000028F7D120780023000704D5702D02D002
:1005000009B1022311322046BDE8704000F06CB9F9
:10051000DA0502002DE9F05F894604464FF0000A33
:10052000DFF824B1FB44C0F820A02046E1688847EA
:1005300000287DD0252806D0D4E901219047206AE3
:10054000401C2062F1E700255F462046E1688847AD
:100550002028064607DB312E05D2B81910F8200CEA
:1005600008B10543F1E7A80701D525F00405C4F853
:100570001CA00027C4F818A02A2E09D0304615F078
:10058000F6F938B304EB8708303EC8F8186019E074
:1005900059F8041B204604EB87029161E168884703
:1005A000012F064618D1E069002820DA25F0200541
:1005B0001DE0D8F8180000EB800006EB4000303852
:1005C000C8F818002046E1688847064615F0CFF9BC
:1005D0000028EED1012F0AD02E2E08D12046E16846
:1005E00088477F1C0646022F45F02005C4DBA06922
:1005F000002803DA404245F00105A061E80701D078
:1006000025F01005A6B1A6F14100192802D8203620
:1006100045F400654A463146204625604D46FFF7C1
:100620000DFE60B1012807D0ED1D25F0070000E0A8
:1006300007E000F1080978E705F1040975E730469D
:100640007AE7206ABDE8F09FB005020040EA0103A6
:1006500010B59B070FD1042A0DD310C808C9121F6B
:100660009C42F8D020BA19BA884201D9012010BDA5
:100670004FF0FF3010BD1AB1D30703D0521C07E072
:10068000002010BD10F8013B11F8014B1B1B07D1D6
:1006900010F8013B11F8014B1B1B01D1921EF1D147
:1006A000184610BD032A40F2308010F0030C00F011
:1006B000158011F8013BBCF1020F624498BF11F89C
:1006C00001CB00F8013B38BF11F8013BA2F1040255
:1006D00098BF00F801CB38BF00F8013B11F00303CD
:1006E00000F02580083AC0F0088051F8043B083A31
:1006F00051F804CBA0E80810F5E7121D5CBF51F8D3
:10070000043B40F8043BAFF30080D20724BF11F84C
:10071000013B11F801CB48BF11F8012B24BF00F8B1
:10072000013B00F801CB48BF00F8012B704710B522
:10073000203AC0F00B80B1E81850203AA0E81850D9
:10074000B1E81850A0E81850BFF4F5AF5FEA027C9A
:1007500024BFB1E81850A0E8185044BF18C918C009
:10076000BDE810405FEA827C24BF51F8043B40F8AA
:10077000043B08BF7047D20728BF31F8023B48BF8F
:1007800011F8012B28BF20F8023B48BF00F8012BCD
:1007900070474FF0000200B5134694469646203944
:1007A00022BFA0E80C50A0E80C50B1F12001BFF42A
:1007B000F7AF090728BFA0E80C5048BF0CC05DF890
:1007C00004EB890028BF40F8042B08BF704748BFDE
:1007D00020F8022B11F0804F18BF00F8012B704752
:1007E00070477047704770472DE9F0470D469946AE
:1007F0009246044600F124080168880604D5E069A1
:1008000021F01001216000E00120A84201DD471B1A
:1008100000E00027A1697A1902EB0900081AA0611B
:100820002078C00602D42046FFF7BCFD002608E071
:10083000D4E901211AF806009047206A401C761C72
:1008400020624E45F4DB2078C0060AD52046FFF72B
:10085000A9FD06E0D4E9012130209047206A401C20
:100860002062381EA7F10107F4DC07E0D4E901217A
:1008700018F805009047206A401C2062281EA5F148
:100880000105F3DC2046FFF7A3FD2078000602D522
:100890000220BDE8F0870120FBE710B5436913B1E2
:1008A000AFF3008001E0FFF7A4FD012010BD127836
:1008B00000F124010A7000224A700122EDE711685C
:1008C0004FF0FF32E9E70000074B70B50D467B445F
:1008D00000F011F80446284600F020F810B14FF05F
:1008E000FF3070BD204670BD5F6C010001694A1C7D
:1008F00002610878704700B58FB0CDE90131002161
:10090000059105497944CDE9031011466846FFF782
:1009100001FE0FB000BD0000E5FFFFFF007B00F00F
:1009200080007047754600F02BF8AE46050069461A
:10093000534620F00700854618B020B5FFF702FDAA
:10094000BDE820404FF000064FF000074FF00008D0
:100950004FF0000B21F00701AC46ACE8C009ACE851
:10096000C009ACE8C009ACE8C0098D46704710B5B5
:100970000446AFF300802046BDE81040FFF778BC86
:1009800000487047405B01200146082904DA04480A
:1009900050F82100008870474FF0FF30FBE700005F
:1009A000EC0200201CB50120314908803149088043
:1009B0000020009003460322022101902E4808F0F7
:1009C00027FD2E48006840F480702C4908600846D6
:1009D000006820F4807008604FF4403028490860B7
:1009E00000202849486088600846406848600846FA
:1009F000406848600846806840F002008860084609
:100A0000806820F400608860084680688860084636
:100A1000C06A20F47000C8620846C06AC86208460E
:100A2000006920F0605008610846006940F04050BD
:100A300008610846806840F00100886008468068C8
:100A400040F4007088600846806840F480708860D8
:100A50000846406B20F01F0048630846406B40F09A
:100A6000090048630846806840F0804088601CBDEB
:100A7000A0084742040647420004024024380240CE
:100A800004230140002001401CB501203E4908809C
:100A90003E49088000200090034603220121019076
:100AA0003B4808F0B5FC3B48006840F40070394909
:100AB00008600846006820F400700860002036498D
:100AC00008603649C1F8080133480068C1F80401DC
:100AD00031480068C1F804010846D0F8080140F028
:100AE0000200C1F808010846D0F8080120F40060AF
:100AF000C1F808012848001D0068C1F8080108462F
:100B0000D0F82C0120F47000C1F82C0122482830C4
:100B10000068C1F82C010846D0F8100120F0E06010
:100B2000C1F810010846D0F8100140F0E060C1F8AB
:100B300010010846D0F8080140F00100C1F8080192
:100B40000846D0F8080140F40070C1F808010846D2
:100B5000D0F8080140F48070C1F808010846D0F8C8
:100B6000340120F01F00C1F834010846D0F83401E8
:100B700040F00800C1F834010846D0F8080140F000
:100B80008040C1F808011CBDA40847420406474242
:100B900000040240243802400421014000200140AA
:100BA0001CB50A203221124B124ACDE90010002157
:100BB00011480AF027FC0A2032210D4B64330F4AFA
:100BC000CDE9001001210C4830300AF01BFC322125
:100BD00009480AF0EFFC3221074830300AF0EAFCFD
:100BE000022014F0E5FFFFF7DDFEFFF74DFF1CBD0F
:100BF000345800204C200140106402404C21014038
:100C000010B51348D0F8F80F88B11248B0F83A017F
:100C100068B91048B0F8480148B10F48D0F8E80367
:100C2000022804D107F058FC08B9012000E0002098
:100C3000044607482146D0F8F82F06201EF0FAFA9D
:100C400020B107220021022000F05EF810BD000054
:100C50009019002030290020F009002013200FE017
:100C60000949096851F8201049B10146C21700EB43
:100C700092729210521C044B1B681A6502E0401ECF
:100C80000028EDDA00BF7047880700200C4A116881
:100C9000B1F8D428012A11D10022A1F8D4280020CB
:100CA00006E00022074B1B6843F82020421CD0B20C
:100CB0001428F6DB0022034B1B681A6570470000FE
:100CC000900700208807002030B5012818DB052890
:100CD00016DC032914DC1F2A12DC0423C3EB800377
:100CE0000B44084C246854F8233001249440A34357
:100CF0000424C4EB80040C44024D2D6845F82430D4
:100D000030BD00008807002030B5012818DB052819
:100D100016DC032914DC1F2A12DC0423C3EB800336
:100D20000B44084C246854F8233001249440234396
:100D30000424C4EB80040C44024D2D6845F8243093
:100D400030BD0000880700203EB54FF47A60811066
:100D5000009142F6E463154ACDE90110A2F69441F0
:100D6000A1F5437017F036FD09F08AFB002405E079
:100D7000012120460AF0BCFF601CC4B2182CF7DB2E
:100D8000002405E00121204606F036FE601CC4B2B6
:100D9000082CF7DB01210648C0F8EC130AF002FA30
:100DA0000449024801F0D9F93EBD00009019002025
:100DB000F0090020F022002010B5FFF721FF09F014
:100DC000F9FE01F0D7FA0FF081FF10F081FB08F077
:100DD000F5FD0BF07DFE1E4802F0B6FF01F06CFB46
:100DE0001B48483004F000F8194854300FF0CEFF8B
:100DF00017486C3005F088FE0CF080F91548D0F8E3
:100E0000E80302280DD0124860380BF0DBFD1048D3
:100E1000543805F0E1FC0E48483808F009F80AF0AB
:100E200031FC00210C48A0F80011A0F8FE10084881
:100E3000CC3807F053FF0648C03805F067FD04487A
:100E4000B43808F065F802480C3005F013FC10BD0A
:100E5000D8400020F009002030290020B0EE401AD0
:100E60000146481E0CE0421E134B03EB8202D2EDFA
:100E7000001A1A4602EB8002C2ED001A421E10B29E
:100E80000128F0DA0C4A283A82ED0A1ADFED0B0A43
:100E900000200AE0084A02EB8002D2ED001A71EE4F
:100EA000A01AF0EE610A421C10B28842F2DBF2EEA8
:100EB000041A80EEA10A7047A8410020000000003B
:100EC000B0EE401A0146481E0CE0421E134B03EBE5
:100ED0008202D2ED001A1A4602EB8002C2ED001A1D
:100EE000421E10B20128F0DA0C4A283A82ED0A1AA2
:100EF000DFED0B0A00200AE0084A02EB8002D2ED87
:100F0000001A71EEA01AF0EE610A421C10B288427B
:100F1000F2DBF2EE041A80EEA10A7047A84100202D
:100F20000000000070B505460C46012C00DD70BDC8
:100F30002846FFF729FDA0420ED1284601F07CF893
:100F40000121284601F064F80720C5EBC501034ADA
:100F500002EB011181F8640000BFE8E72C3B01209F
:100F6000C0EBC001074A02EB0111B1F8601039B9BA
:100F70000021C0EBC002034B03EB021282F86410A5
:100F8000704700002C3B012070470000C0EBC001FF
:100F9000074A02EB0111B1F8601039B90021C0EB2A
:100FA000C002034B03EB021282F86410704700008A
:100FB0002C3B01207047000010B500204F490870FD
:100FC00096E04E480078C0EBC0004D4901EB0010A0
:100FD000B0F8600048B14B4848490978405C20B9F6
:100FE00001214848454A12788154464843490978C6
:100FF000405C012804D0022847D0032872D171E058
:101000003E48007804F074FB3C490978C1EBC1010B
:101010003B4A02EB0111C86538480078C0EBC000BC
:1010200002EB0010C16D354800780DF06BFA3348C3
:1010300000780DF0F5F931490978C1EBC101304A6A
:1010400002EB011191F96C102C4A1278C2EBC2022A
:101050002B4B03EB0212526D00FB0120274909784C
:10106000C1EBC1011A4602EB0111886523480078E3
:101070000DF0FEF940B9234820490978405C401C36
:1010800020491E4A127888542CE01C4800780DF044
:10109000C7F91A490978C1EBC101194A02EB0111DC
:1010A00091F96C10154A1278C2EBC202144B03EB93
:1010B0000212526D00FB012010490978C1EBC101F9
:1010C0001A4602EB0111886500200C490978C1EB32
:1010D000C10102EB0111A1F860000A49074A127828
:1010E000885400BF00BF05480078401C03490870C1
:1010F000024800781028FFF664AF10BDA807002052
:101100002C3B01202C4201207FB504460D46C4EB48
:10111000C400624901EB0010B0F8600000287CD1E7
:10112000C4EBC40001EB0010806DC4EBC4015B4A4A
:1011300002EB01114865C4EBC400114601EB00103D
:101140004068C4EBC40102EB0111C865C4EBC400E4
:1011500002EB0010C16D20460DF0D4F9002D49DDE1
:101160000121204600F0D4FEC4EBC4004B4A02EB40
:101170000010416820460DF0C5F9294620460DF0C3
:1011800079FA0120C4EBC401444A02EB0111A1F831
:101190006000C4EBC400114601EB00104069C4EBD1
:1011A000C40102EB01118968C4EBC4023B4B03EBA1
:1011B0000212126DC4EBC403384E06EB0313DB6955
:1011C000CDE90032CDE90210C4EBC40006EB0010FB
:1011D0000369C4EBC40006EB00104268C4EBC40012
:1011E00006EB001090F82010204605F0DBF80020F8
:1011F00004B070BD002D4BDA4FF0FF31204600F0F7
:1012000087FEC4EBC400254A02EB0010416820466B
:101210000DF078F96942204600E03BE00DF02AFA33
:101220000120C4EBC4011D4A02EB0111A1F86000CA
:10123000C4EBC400114601EB00104069C4EBC401CB
:1012400002EB01118968C4EBC402144B03EB0212D8
:10125000126DC4EBC403114E06EB0313DB69CDE939
:101260000032CDE90210C4EBC40006EB00100369A4
:10127000C4EBC40006EB00104268C4EBC40006EBEC
:10128000001090F82010204605F08CF80020AFE701
:101290000020ADE74FF0FF30AAE700002C3B012013
:1012A00010B50446C4EBC400FE4901EB001090F8F1
:1012B0006400052813D1C4EBC40001EB0010B0F8A2
:1012C000620060B90120C4EBC401F64A02EB0111CF
:1012D000A1F862000FF0ECFDF34941F82400C4EBE3
:1012E000C400F04901EB001090F8640005282AD1F1
:1012F000C4EBC40001EB0010406B20B30FF0D8FD2D
:10130000E94951F82410401AC4EBC401E54A02EB44
:101310000111496B884216D90221204600F078FE5F
:10132000204600F089FE0020C4EBC401DD4A02EB38
:101330000111A1F862000720C4EBC40102EB011106
:1013400081F8640010BDC4EBC400D64901EB001065
:10135000B0F862001C287AD2DFE800F0790E83B082
:10136000C7FDFCFBFAF9F8F7F6F5F4F3F2F1F0EF4C
:10137000EEEDECEBEAE9E8E7C4EBC400C94901EBA8
:10138000001090F8380000F00100C8B3C4EBC400AE
:1013900001EB001090F83E0088B1C4EBC401C14AD3
:1013A00002EB011191F8440000F0CAFDC4EBC40146
:1013B000BC4A02EB011191F84210884221D0C4EBE3
:1013C000C400B84901EB0010406AC4EBC401B54A3F
:1013D00002EB011108614FF010412046FFF794FE27
:1013E000C4EBC400AF4901EB0010B0F86200401C30
:1013F000C4EBC401AB4A02EB0111A1F862002FE07B
:10140000FFE7C4EBC400A74901EB001090F83800D7
:1014100000F0080040B11020C4EBC401A14A02EB67
:101420000111A1F862001BE0C4EBC4009D4901EB6F
:10143000001090F8380000F0100048B11620C4EBFE
:10144000C401984A02EB0111A1F8620008E009E228
:101450000420C4EBC401934A02EB0111A1F862001D
:1014600000E2C4EBC4008F4901EB001090F83E008D
:1014700018B3C4EBC4018B4A02EB011191F844008C
:1014800000F05EFDC4EBC401864A02EB011191F845
:101490004210884211D1204600F0CEFDC4EBC400BA
:1014A000804901EB0010B0F86200401CC4EBC4019D
:1014B0007C4A02EB0111A1F86200D3E1C4EBC40045
:1014C000784901EB0010B0F8600068B9C4EBC400C3
:1014D00001EB0010B0F86200401CC4EBC401714A7B
:1014E00002EB0111A1F86200BCE1C4EBC4006D493C
:1014F00001EB001090F8380000F0020060B3C4EB7C
:10150000C40001EB001090F83D0030B3C4EBC401FF
:10151000644A02EB011191F8430000F011FDC4EBA5
:10152000C401604A02EB011118E0FDE3E4E3B7E314
:101530008CE36AE31CE30AE3E4E2B7E287E265E2F4
:1015400017E2F8E1E0E1A5E18DE160E115E1FDE000
:10155000D0E075E05DE02FE025E003E091F8411078
:10156000884220D0C4EBC4004E4901EB0010406A11
:10157000C4EBC4014B4A02EB011108614FF0E0419A
:101580002046FFF7C1FDC4EBC400464901EB001043
:10159000B0F86200401CC4EBC401424A02EB0111E6
:1015A000A1F8620007E00720C4EBC4013D4A02EB4A
:1015B0000111A1F86200D7E3C4EBC400394901EB83
:1015C000001090F83D0018B3C4EBC401354A02EB9B
:1015D000011191F8430000F0B3FCC4EBC401314A9F
:1015E00002EB011191F84110884211D1204600F020
:1015F00023FDC4EBC4002B4901EB0010B0F86200DE
:10160000401CC4EBC401274A02EB0111A1F862009F
:10161000AAE3C4EBC400234901EB0010B0F860005A
:1016200068B9C4EBC40001EB0010B0F86200401CC4
:10163000C4EBC4011B4A02EB0111A1F8620093E361
:10164000C4EBC400174901EB001090F8380000F01B
:10165000010030B3C4EBC40001EB001090F8380077
:1016600000F00200E8B9C4EBC40001EB0010406ACE
:10167000C4EBC4010B4A02EB011108614FF0E041D9
:101680002046FFF741FDC4EBC400064901EB001002
:10169000B0F86200401CC4EBC401024A02EB011125
:1016A00004E006E02C3B01203C420120A1F862004E
:1016B0001FE0C4EBC400FB4901EB0010406AC4EB1F
:1016C000C401F84A02EB011108614FF010412046B5
:1016D000FFF71AFDC4EBC400F24901EB0010B0F8AB
:1016E0006200401CC4EBC401EE4A02EB0111A1F8F8
:1016F000620039E3C4EBC400EA4901EB001090F842
:10170000300010B3C4EBC401E64A02EB0111488E6D
:1017100000F016FCC4EBC401E24A02EB011191F89F
:101720003110884211D1204600F086FCC4EBC40081
:10173000DC4901EB0010B0F86200401CC4EBC401AE
:10174000D84A02EB0111A1F862000DE3C4EBC4001A
:10175000D44901EB0010B0F8600068B9C4EBC400D4
:1017600001EB0010B0F86200401CC4EBC401CD4A8C
:1017700002EB0111A1F86200F6E2C4EBC400C94912
:1017800001EB001090F8300080B3C4EBC401C54AEF
:1017900002EB0111488E00F0D3FBC4EBC401C14A37
:1017A00002EB011191F83110884220D1C4EBC40042
:1017B000114601EB0010806AC4EBC40102EB011179
:1017C00008614FF0E0412046FFF79EFCC4EBC400E7
:1017D000B44901EB0010B0F86200401CC4EBC40136
:1017E000B04A02EB0111A1F862000FE0FFE7C4EB81
:1017F000C400AC4901EB0010B0F86200401CC4EB1F
:10180000C401A84A02EB0111A1F86200ACE2C4EBEA
:10181000C400A44901EB001090F8300080B1C4EB83
:10182000C401A04A02EB0111488E00F089FBC4EB11
:10183000C4019C4A02EB011191F83110884211D089
:10184000204600F0F9FBC4EBC400964901EB001000
:10185000B0F86200401CC4EBC401924A02EB0111D3
:10186000A1F8620080E2C4EBC4008E4901EB0010D5
:10187000B0F8600068B9C4EBC40001EB0010B0F828
:101880006200401CC4EBC401864A02EB0111A1F8BE
:10189000620069E2C4EBC400824901EB0010C06A37
:1018A00010B3C4EBC40001EB00100069C4EBC40129
:1018B0007C4A02EB01110861C4EBC40002EB00108A
:1018C000C16A2046FFF720FCC4EBC400754901EB58
:1018D0000010B0F86200401CC4EBC401714A02EB76
:1018E0000111A1F862000EE0C4EBC4006D4901EBE8
:1018F0000010B0F86200401CC4EBC401694A02EB5E
:101900000111A1F862002FE2C4EBC400654901EBAC
:101910000010B0F8600068B9C4EBC40001EB00101F
:10192000B0F86200401CC4EBC4015E4A02EB011136
:10193000A1F8620018E20020C4EBC401594A02EB8E
:1019400001118865C4EBC40102EB01110865C4EB09
:10195000C40102EB011181F86400204600F02AFB6B
:101960000020C4EBC4014F4A02EB0111A1F8620050
:10197000FAE1C4EBC4004B4901EB001090F83000D1
:1019800080B1C4EBC401474A02EB0111488E00F05C
:10199000D7FAC4EBC401434A02EB011191F83110AC
:1019A000884219D0C4EBC4003E4901EB0010406AE4
:1019B000C4EBC4013B4A02EB011108614FF0E04166
:1019C0002046FFF7A1FB1120C4EBC401354A02EB0E
:1019D0000111A1F8620018E0C4EBC400314901EB29
:1019E0000010406AC4EBC4012E4A02EB01110861E9
:1019F0004FF0E0412046FFF787FB1220C4EBC40103
:101A0000284A02EB0111A1F86200ADE1C4EBC40069
:101A1000244901EB001090F83000B8B1C4EBC401C8
:101A2000204A02EB0111488E00F08AFAC4EBC4018F
:101A30001C4A02EB011191F83110884206D11220A4
:101A4000C4EBC40102EB0111A1F862008CE1C4EB0C
:101A5000C400144901EB001090F8300080B1C4EBD1
:101A6000C401104A02EB0111488E00F069FAC4EB80
:101A7000C4010C4A02EB011191F8311088420FD0D9
:101A8000204600F0D9FA0FF013FA074941F8240074
:101A90001320C4EBC401034A02EB0111A1F8620058
:101AA00062E100002C3B01207C420120C4EBC40019
:101AB000AF4901EB0010B0F8600010BB0FF0F8F96F
:101AC000AC4951F82410401A40F63401884218D32A
:101AD000C4EBC400A64901EB0010806AC4EBC4014A
:101AE000A34A02EB011108614FF010412046FFF7B5
:101AF0000BFB1420C4EBC4019D4A02EB0111A1F8B9
:101B0000620031E1C4EBC400994901EB001090F888
:101B10003000D8B1C4EBC401954A02EB0111488EE4
:101B200000F00EFAC4EBC401914A02EB011191F8E6
:101B3000311088420AD1204600F07EFA1520C4EB0D
:101B4000C4018B4A02EB0111A1F862000CE1C4EB65
:101B5000C400874901EB0010B0F8600038B90F20CD
:101B6000C4EBC401824A02EB0111A1F86200FBE060
:101B7000C4EBC4007E4901EB001090F8300080B146
:101B8000C4EBC4017A4A02EB0111488E00F0D8F987
:101B9000C4EBC401764A02EB011191F8311088427E
:101BA00019D0C4EBC400724901EB0010406AC4EBC9
:101BB000C4016F4A02EB011108614FF01041204649
:101BC000FFF7A2FA1720C4EBC401694A02EB011126
:101BD000A1F8620018E0C4EBC400654901EB0010F5
:101BE000406AC4EBC401624A02EB011108614FF084
:101BF00010412046FFF788FA1820C4EBC4015C4A64
:101C000002EB0111A1F86200AEE0C4EBC400584938
:101C100001EB001090F83000B8B1C4EBC401544A95
:101C200002EB0111488E00F08BF9C4EBC401504A5D
:101C300002EB011191F83110884206D11820C4EB53
:101C4000C40102EB0111A1F862008DE0C4EBC400F5
:101C5000474901EB001090F8300080B1C4EBC4019B
:101C6000434A02EB0111488E00F06AF9C4EBC4014B
:101C70003F4A02EB011191F8311088420FD0204603
:101C800000F0DAF90FF014F93A4941F8240019206C
:101C9000C4EBC401364A02EB0111A1F8620063E013
:101CA000C4EBC400324901EB0010B0F8600010BB77
:101CB0000FF0FEF82F4951F82410401A40F6340175
:101CC000884218D3C4EBC400294901EB0010806A94
:101CD000C4EBC401264A02EB011108614FF0E04158
:101CE0002046FFF711FA1A20C4EBC401204A02EB88
:101CF0000111A1F8620037E0C4EBC4001C4901EBFC
:101D0000001090F83000E8B1C4EBC401184A02EBAF
:101D10000111488E00F014F9C4EBC401144A02EB1F
:101D2000011191F8311000E00DE088420AD12046FF
:101D300000F082F91B20C4EBC4010D4A02EB011133
:101D4000A1F8620010E0C4EBC400094901EB0010E7
:101D5000B0F8600038B90F20C4EBC401044A02EBAC
:101D60000111A1F8620000BF00BF00BFFFF7EABA8F
:101D70002C3B01207C42012010B50446C4EBC4007A
:101D8000314901EB001090F86C00012828D1C4EB18
:101D9000C40001EB001090F83D0008B3C4EBC4018F
:101DA000294A02EB011191F8430000F0C9F8C4EB95
:101DB000C401254A02EB011191F8411088420FD16C
:101DC0004FF48071204600F023F9204600F034F9EA
:101DD0000720C4EBC4011C4A02EB011181F8640026
:101DE000C4EBC400184901EB001090F96C00B0F18D
:101DF000FF3F28D1C4EBC40001EB001090F83E0077
:101E000008B3C4EBC401104A02EB011191F844007D
:101E100000F096F8C4EBC4010B4A02EB011191F8F3
:101E2000421088420FD14FF48051204600F0F0F864
:101E3000204600F001F90720C4EBC401024A02EB7E
:101E4000011181F8640010BD2C3B012010B504463F
:101E5000C4EBC4002C4901EB001090F83F0020B304
:101E6000C4EBC40001EB001090F86C0001281CD1F9
:101E7000C4EBC40001EB0010806DC4EBC401224A26
:101E800002EB0111896C88420FDD4FF4007120468E
:101E900000F0BEF8204600F0CFF80720C4EBC401E4
:101EA000194A02EB011181F86400C4EBC400164921
:101EB00001EB001090F8400028B3C4EBC40001EB24
:101EC000001090F96C00B0F1FF3F1CD1C4EBC400CE
:101ED00001EB0010806DC4EBC4010B4A02EB011151
:101EE000C96C88420FDA4FF40051204600F090F898
:101EF000204600F0A1F80720C4EBC401024A02EB1F
:101F0000011181F8640010BD2C3B012070470000D6
:101F100070B505460C46C5EBC500084901EB00103D
:101F200080F86C40002C04DD0121284605F09AF869
:101F300003E00021284605F095F870BD2C3B0120F8
:101F400010B50446802C04D2E0B208F035FEC0B2D1
:101F500010BD802C08D3902C06D2A4F18001C8B209
:101F6000FEF712FDC0B2F3E7902C08D3A02C06D2E6
:101F7000A4F19001C8B208F0F5FFC0B2E8E7C02CA8
:101F800009D3D02C07D2A4F1C001C8B2002106F0B9
:101F9000FDFBC0B2DCE7D02C09D3E02C07D2A4F1C2
:101FA000D001C8B2012106F0F1FBC0B2D0E7002099
:101FB000CEE70000C0EBC001104A02EB0111096836
:101FC000C0EBC0020D4B03EB02125160C0EBC0012D
:101FD0001A4602EB0111C968C0EBC00203EB021202
:101FE0001161C0EBC0011A4602EB01118969C0EB17
:101FF000C00203EB0212D161704700002C3B0120AC
:102000000146142901D2142070470846FCE700005D
:1020100010B510280CDAC0EBC002064B03EB02121D
:10202000926E0A43C0EBC003024C04EB03139A66A2
:1020300010BD00002C3B012010B5044620460CF0DA
:1020400053FB10BD7FB50446204603F0A1FA0546B8
:1020500020460CF0F9F9064620460CF0E1F9301A5A
:10206000A8424DD9C4EBC400264901EB0010C06D55
:10207000C4EBC401234A02EB01114860C4EBC40065
:10208000114601EB0010C06DC4EBC40102EB01115D
:10209000086120460CF0C4F94619314620460CF080
:1020A0001DFAC4EBC400174901EB00104069C4EBF2
:1020B000C401144A02EB01118968C4EBC402114B3C
:1020C00003EB0212126DC4EBC4030E4E06EB0313B6
:1020D000DB69CDE90032CDE90210C4EBC40006EBA8
:1020E00000100369C4EBC40006EB00104268C4EBA7
:1020F000C40006EB001090F82010204604F052F9BE
:102100007FBD00002C3B0120C0EBC001074A02EB61
:102110000111B1F8601039B90021C0EBC002034BC6
:1021200003EB021282F86410704700002C3B012080
:10213000C0EBC001074A02EB0111B1F8601039B9D8
:102140000021C0EBC002034B03EB021282F86410C3
:10215000704700002C3B0120704770B586B00646E2
:102160000D460024DDE004EB840035F8200030B19A
:1021700001282AD002284ED0032825D185E000204E
:102180000290039004900590009004EB840105EB0D
:10219000810101900B7B04EB840105EB81018A7ABC
:1021A000E0B2012107F090FE04EB840006EBC000D2
:1021B000006A04EB840106EBC1010090E0B2002349
:1021C0004A6A194607F088FF99E0002002900390C0
:1021D00004900590009004EB840105EB81010190CF
:1021E0000B7B04EB840105EB81018A7AE0B20121CB
:1021F00007F06AFE04EB840006EBC000006A04EB03
:10220000840106EBC1010090E0B201234A6A19463D
:1022100007F062FF73E004EB840005EB8000007AB6
:1022200004EB840105EB81018979012304EB84022D
:1022300005EB82021279CDE90223CDE9041004EB0B
:10224000840005EB8000807804EB840105EB8101BC
:10225000CDE900300B7B04EB840105EB81018A7A28
:10226000E0B2012107F030FE04EB840006EBC00071
:10227000006A04EB840106EBC1010090E0B2002388
:102280004A6A194607F028FF39E004EB840005EBA1
:102290008000007A04EB840105EB81018979012338
:1022A00004EB840205EB82021279CDE90223CDE929
:1022B000041004EB840005EB8000807804EB8401BB
:1022C00005EB8101CDE900300B7B04EB840105EBCC
:1022D00081018A7AE0B2012107F0F6FD04EB840067
:1022E00006EBC000006A04EB840106EBC10100901C
:1022F000E0B201234A6A194607F0EEFE00BF00BFB4
:1023000004EB840205EB8202917BE0B207F062FEEF
:1023100004EB840205EB8202117CE0B207F0C2FDFF
:10232000641C082CFFF61FAF06B070BD10B500246A
:1023300019E0204607F0D0FB072812D1204607F00D
:102340009BFB01280DD104F10A00C2B2002102203A
:10235000FEF7DAFC0548006818B100210448C0F80F
:10236000641A601CC4B2082CE3DB10BD28000020F6
:1023700030290020002020E0002200EB80032249C9
:1023800001EB8301CA8100EB80031F4901EB83014C
:102390000A8200EB80031C4901EB83014881012282
:1023A00000EB8003184901EB83018A81002200EBD6
:1023B0008003154921F82320401C0828DCDB01227A
:1023C0001249A1F87029A1F88429A1F8982901F5EA
:1023D000FA6202F67C018B694969C2E902139FED3A
:1023E0000C0A114681ED030A503A01F505610B6BA9
:1023F000C96AC2E91413503202F67C01CB688968BD
:10240000C2E9041370470000F02200209019002058
:102410000000B44370B500241CE0E0B207F03CFBC0
:10242000214941F82400E0B207F056FB81B21F4871
:1024300020F814101C4A52F8241002F5AF5202EB97
:10244000C4000CF0D9F91948643000EB840080ED29
:10245000000A641C082CE0DB14486438D0F894119E
:1024600000F57A60D0F8D807B1FBF0F200FB121546
:1024700029460F480CF0C0F90C48643880ED330A47
:1024800000240EE0E0B206F0EFF80749C83141F849
:102490002400E0B206F0A8F9064901EBC401486047
:1024A000641C042CEEDB70BD800B0020540A00205D
:1024B000682100208854002070B5002573E005EBEA
:1024C00045013A4800EB810439480078012804D1DD
:1024D00007F0AAF9012800D120702078012805D141
:1024E000607818B9012060700020A0706078012821
:1024F00004D0022824D0032852D149E02D48B0F856
:102500008E010121A9400840B8B12B48D0ED130A33
:102510002A4850F8250000EE100AB8EEC00AF4EE82
:10252000C00AF1EE10FA0ADB2548415D0022104690
:1025300009F0FAFB0220607001E0032060702FE0D8
:1025400007F072F9D8B11A480078C0B11B4850F8AA
:10255000250000EE100AF8EEC00A1848103050F8B6
:10256000250000EE100AB8EEC00A30EE800A1248CC
:10257000D0ED130AB4EEE00AF1EE10FA07D81048D5
:10258000415D0122002009F0CFFB0320607007E0CD
:102590000748007818B9002020706070A07000BF54
:1025A00000BF681CC5B2012D89DB70BDF040002062
:1025B0002042002030290020D80D0020C42A00200D
:1025C0000800002010B50A21002008F003FB08B91C
:1025D000012000E000200446214607200CF07CF991
:1025E00060B14648D0F8EC0340B94448D0F8E8035D
:1025F000012803D102214148C0F8B81B0A2100205C
:1026000008F0E8FA40B93D48D0F8EC03012803D1BE
:1026100003213A48C0F8B81B0B21002008F0DAFA71
:1026200020B13748D0F84C01012819D13348D0F8EF
:10263000E803022803D10120324981F89C002F4889
:10264000D0F85C03012807D901212C48C0F8D41820
:102650000321002009F04CFB00212948C0F84C114F
:102660000D21002008F0B6FAB0B901212348C0F8C6
:10267000B81B032200210220FEF746FB1F48D0F8BA
:102680005C0301280DD901211C48C0F8D41803218E
:10269000002009F02DFB04E0032200210220FEF7B8
:1026A00013FB0D21002008F095FA012800D100E06D
:1026B0000020044621460A200CF00EF940B10F48D4
:1026C000D0F8B80B042803D101210C48C0F8B81B7E
:1026D0000321002009F01AFB08B9012000E00020C6
:1026E00004464FF47A72214607201CF0A3FD20B166
:1026F00001220321002009F017FB10BDF009002082
:1027000030290020804100202DE9FC4704460D4679
:1027100016461F46DDF828904FF0000814B10DB1A1
:1027200006B117B90120BDE8FC87601EC4B2681E5F
:10273000C5B2701EC6B2781E87B201206D490880EE
:102740000880022100230A46CDE900106A4806F0FD
:102750005FFE0120022100230A46CDE90010014658
:10276000654806F055FE09220121634806F030FE57
:1027700009220021604806F02BFE01205F490880F5
:1027800000205F4908600846006840F001000860CA
:1027900008E008F101001FFA80F8B8F1640F01DDCC
:1027A0000220C0E75648001D006800F00100002824
:1027B000EFD053480068524908600846006840F06E
:1027C000400008600846006808600846006840F05D
:1027D0001000086008460068086008460068086045
:1027E000002047491C3108600846006840EA8970AB
:1027F00008600846006840EA04600860084600680F
:1028000040EA055008600846006840EA0640086053
:1028100008460068384308603948006820F0010025
:102820003749086009E008F101001FFA80F84FF607
:10283000F070804501DD032075E73148001D006818
:1028400000F001000028EED12E48006840F00100A1
:102850002C4908602B481C30006820F001002949F1
:102860001C31086027480C30006840F00100254901
:102870000C3108602348001D00682249091D0860CA
:102880002048143000681F491431086000201D4999
:102890004031086000211B484430016019481C3059
:1028A000006840F0010017491C31086015480068B5
:1028B00000201449086012481430006840F00100FC
:1028C0000F4914310860022313220021012008F06F
:1028D00081FE0B481430006840F0020008491431B2
:1028E0000860022314220021012008F073FE00205A
:1028F00019E700000C064742000C024064084742FA
:102900000064004000660040014621B907480068A5
:1029100000F003007047012905D10448001D00683C
:1029200000F00300F6E70020F4E700000C6400402C
:1029300000B500F007F801200149487400BD00000F
:10294000FC5800200FB50020FFF7DEFF10B9002073
:1029500004B000BD0648411E02AB03AACDE9001039
:10296000411F002000F006F801481938007EEFE70B
:1029700015590020F0B5DDE90554324E06EB00167E
:10298000366806F004061670167836B92D4E06EB3A
:1029900000163668760D0E6005E02A4E06EB00162E
:1029A0003668F6080E60274E06EB0016366806F00D
:1029B00002061E70234E06EB0016766806F00F0620
:1029C0002E70204E06EB0016B66826701D4E06EBE4
:1029D0000016B668360A66701A4E06EB0016B66820
:1029E000360CA670174E06EB0016B668360EE6706B
:1029F000144E06EB0016F6682671124E06EB001612
:102A0000F668360A66710F4E06EB0016F668360C4D
:102A1000A6710C4E06EB0016F668360EE67130B95C
:102A2000094E366846F02006074F3E6009E001284F
:102A300007D1054E361D366846F02006024F3F1D71
:102A40003E60F0BDB06500400C6400401248006874
:102A500000F0010028B11048006840F001000E4964
:102A600008600D48006800F4807028B10A480068CA
:102A700040F48070084908600748006800F480301E
:102A800028B10548006840F4803003490860002000
:102A9000024908607047000008640040FC580020AC
:102AA00070B586B00446002508E00021FE4800EB22
:102AB000C410643040F82510681CC5B2072DF4DB43
:102AC00020460BF0C1FCF84901EBC4118865F648BB
:102AD00000EBC410007800287ED1F34800EBC4104E
:102AE000C069002877D0F04800EBC410006A0028C5
:102AF00071D0ED4800EBC410C068EB4901EBC41184
:102B00008968401A00EE100AB8EE400ADFEDE70AC5
:102B100060EE200AE44800EBC41090ED070AB8EE1E
:102B2000400A80EE801ABCEEC10ADF4800EBC410F8
:102B300080ED050ADC4800EBC4104369DA4800EB7D
:102B4000C410C268D84800EBC410816802A804F021
:102B5000C7FBDDE90201CDE90401D34800EBC41055
:102B600005998166D04800EBC410C168CE4800EBDF
:102B7000C4100069081A00EE100AB8EE400ADFED32
:102B8000CB0A60EE200AC84800EBC41090ED080A9A
:102B9000B8EE400A80EE801ABCEEC10AC24800EBD3
:102BA000C41080ED060AC04800EBC4108369BE481B
:102BB00000EBC4100269BC4800EBC410C16802A855
:102BC00004F0EAFDDDE90201CDE90401B64800EBBD
:102BD000C4100599816700E0A2E0B34800EBC4107F
:102BE000816EB14800EBC410806F0144AE4800EB29
:102BF000C410806D814212D8AB4800EBC410816DC7
:102C0000A94800EBC410806E091AA74800EBC41055
:102C1000806F091AA44800EBC410016764E2A2485F
:102C200000EBC41090ED160AB8EE400ADFEDA00AE2
:102C300060EE200A9C4800EBC41090ED070AB8EE45
:102C4000400A60EE800A984800EBC410C1699648BB
:102C500000EBC410006A084400EE100AB8EE400A07
:102C600080EE801ABCEEC10A10EE106A8E4800EBAE
:102C7000C41042698C4800EBC4103346816802A836
:102C80000BF050FDDDE90201CDE90401864800EBBF
:102C9000C4100499C160844800EBC4100599816692
:102CA000814800EBC41083697F4800EBC4100269BF
:102CB0007D4800EBC410C16802A804F06DFDDDE999
:102CC0000201CDE90401784800EBC4100599816741
:102CD000754800EBC410816E734800EBC410806F20
:102CE0000144714800EBC410806D814212D86E48D7
:102CF00000EBC410816D6C4800EBC410806E091AA3
:102D0000694800EBC410806F091A674800EBC410D3
:102D100001679BE30021644800EBC410016795E361
:102D2000614800EBC41000780128F2D15E4800EB46
:102D3000C410C0690028ECD05B4800EBC410006AE6
:102D40000028E6D0584800EBC41090ED070AB8EE12
:102D5000400ADFED580A20EE200ADFED540A80EE2B
:102D6000201A514800EBC41080ED091A4E4800EBC0
:102D7000C410C0684C4901EBC4118968401A00EEC8
:102D8000100AB8EE400ADFED490A60EE200A464814
:102D900000EBC41090ED070AB8EE400A9FED461A0A
:102DA00020EE010A80EE801ABDEEC10A3E4800EB1B
:102DB000C41080ED050A3C4800EBC41090ED050AF4
:102DC000B8EE400A384800EBC410D0ED090A9FED78
:102DD000371A20EE811AC0EE010AB6EE000A30EE74
:102DE000800ABDEEC00A304800EBC41080ED0B0A2B
:102DF0002D4800EBC41090ED080AB8EE400ADFED54
:102E00002D0A20EE200ADFED290A80EE201A26483E
:102E100000EBC41080ED0A1A234800EBC410C1680F
:102E2000214800EBC4100069081A00EE100AB8EE41
:102E3000400ADFED1E0A60EE200A1B4800EBC410BA
:102E400090ED080AB8EE400A9FED1B1A20EE010A29
:102E500080EE801ABDEEC10A134800EBC41080ED6D
:102E6000060A114800EBC41090ED060AB8EE400ABD
:102E70000D4800EBC410D0ED0A0A9FED0C1A20EEAD
:102E8000811AC0EE010AB6EE000A30EE800ABDEEED
:102E9000C00A054800EBC41080ED0C0A024800EBA4
:102EA000C410C36A004809E0104A012000007A44B7
:102EB0006666663FCDCCCC3E9A99193F00EBC410B4
:102EC0004269FE4800EBC410816802A804F084F94E
:102ED000DDE90201CDE90401F84800EBC4100499D2
:102EE000C163F64800EBC41005994166F34800EB56
:102EF000C410C068F14901EBC41189680144EF486E
:102F000000EBC410C06B091AEC4800EBC41001645C
:102F1000EA4800EBC4104369E84800EBC410026CB7
:102F2000E64800EBC410C16B02A804F051FADDE9D9
:102F30000201CDE90401E14800EBC41004990164E9
:102F4000DE4800EBC41005998166DC4800EBC41034
:102F5000C06A0090D94800EBC4104369D74800EB21
:102F6000C410C268D54800EBC410016C02A804F07C
:102F700087F8DDE90201CDE90401D04800EBC41077
:102F80000599C166CD4800EBC410036BCB4800EB3C
:102F9000C4108269C94800EBC410C16802A804F0DB
:102FA00051FBDDE90201CDE90401C44800EBC41086
:102FB00004994164C14800EBC41005994167BF48BA
:102FC00000EBC410C168BD4800EBC41000690144A7
:102FD000BA4800EBC410406C091AB84800EBC410A2
:102FE0008164B64800EBC4108369B44800EBC41098
:102FF000826CB24800EBC410416C02A804F066FC7D
:10300000DDE90201CDE90401AC4800EBC4100499EC
:103010008164AA4800EBC41005998167A74800EBBA
:10302000C410006B0090A54800EBC4108369A3484E
:1030300000EBC4100269A14800EBC410816C02A827
:1030400004F042FADDE90201CDE904019B4800EBFE
:10305000C4100599C167994800EBC410416E9748A8
:1030600000EBC410806E0144944800EBC410C06EA5
:103070000144924800EBC410406F01448F4800EBBC
:10308000C410806F01448D4800EBC410C06F014430
:103090008A4800EBC410806D814226D2874800EB3D
:1030A000C410416E854800EBC410806E0144834813
:1030B00000EBC410C06E0144804800EBC410406FA8
:1030C00001447E4800EBC410806F01447B4800EB54
:1030D000C410C06F0144794800EBC410806D411AE0
:1030E000764800EBC4100167B0E10021734800EBA3
:1030F000C4108166714800EBC41081676F4800EB13
:10310000C410806D6D4901EBC411C96948436B4916
:1031100001EBC411CA69694901EBC411096A114480
:10312000B0FBF1F005909DED050AB8EE400A5FEDA9
:10313000A10A60EE200A614800EBC41090ED070A76
:10314000B8EE401A80EE810AF6EE000A30EE200A50
:10315000BDEEC00A10EE100A584901EBC41189688F
:10316000884208D2554800EBC4108168534800EBF0
:10317000C410C16024E09DED050AB8EE400ADFED01
:10318000500A60EE200A4D4800EBC41090ED070A8B
:10319000B8EE400A80EE801A484800EBC41090ED6B
:1031A000020AB8EE400A31EE400AF6EE000A30EEAE
:1031B000200ABDEEC00A414800EBC41080ED030AAE
:1031C0003E4800EBC410C0683C4901EBC41189685B
:1031D000884212D1002508E00021384800EBC410D5
:1031E000643040F82510681CC5B2072DF4DB0021BF
:1031F000324800EBC410016728E1304800EBC410EE
:10320000C0682E4901EBC4118968401A00EE100A0B
:10321000B8EE400ADFED2B0A60EE200A274800EBEB
:10322000C41090ED070AB8EE400A80EE801ABCEE9A
:10323000C10A224800EBC41080ED0B0A1F4800EBC6
:10324000C410C06A1D4901EBC411C9694843410853
:103250001A4800EBC4104161184800EBC41090ED0F
:10326000070AF8EE400A154800EBC41090ED080A72
:10327000B8EE400A80EE801A104800EBC41090EDC2
:103280000B0AB8EE400A61EE000A0C4800EBC410CD
:1032900090ED070AB8EE401A084800EBC41090ED14
:1032A000080AB8EE400AC1EE001A20EEA10ABCEEF0
:1032B000C00A024800EBC41006E00000104A0120DA
:1032C0000000FA440000C84380ED0C0A604800EB9F
:1032D000C410006B5E4901EBC411096A4843410800
:1032E0005B4800EBC41081610021594800EBC41019
:1032F0008166574800EBC4108167554800EBC41045
:10330000C36A534800EBC4104269514800EBC41033
:10331000816802A803F060FFDDE90201CDE9040144
:103320004B4800EBC4100499C163494800EBC4103A
:1033300005994166464800EBC410C06A00904448B5
:1033400000EBC4104369424800EBC410C268404817
:1033500000EBC410C16B02A803F092FEDDE902018C
:10336000CDE904013A4800EBC4100599C16638481C
:1033700000EBC410036B364800EBC410826934487C
:1033800000EBC410C16802A804F05CF9DDE9020199
:10339000CDE904012E4800EBC410049941642C4887
:1033A00000EBC41005994167294800EBC410006B7D
:1033B0000090274800EBC4108369254800EBC41037
:1033C0000269234800EBC410416C02A804F07CF8A9
:1033D000DDE90201CDE904011D4800EBC4100599A7
:1033E000C1671B4800EBC410416E194800EBC410C4
:1033F000C06E0144164800EBC410406F01441448ED
:1034000000EBC410C06F0144114800EBC410806D84
:1034100081421BD20E4800EBC410416E0C4800EBF9
:10342000C410C06E01440A4800EBC410406F014450
:10343000074800EBC410C06F0144054800EBC410FE
:10344000806D411A024800EBC410016706B070BDE0
:10345000104A01202DE9F04F2DED068B83B08046F8
:10346000894614461D462878012806D1687820B977
:10347000012068700020A870E8704146204600F0E6
:10348000ADFCA060687803286BD004DC012807D06D
:10349000022867D136E1042865D0A028F9D1A1E03F
:1034A000BC484068002872DD06F0A2F9BA48D0EDA9
:1034B000010AB4EEE00AF1EE10FA69DD06F098F9BF
:1034C000B548D0ED020AB4EEE00AF1EE10FA08D9E0
:1034D000B24890F87C0001285AD1B04890F87D009D
:1034E000F0BBA0206870AE4890ED140AB8EEC00A98
:1034F000B0EE001AC0EE010A90ED110AB8EEC00A53
:1035000070EEC00AA44890ED021AA54890ED140A86
:10351000B8EEC00A31EE000A90ED411A30EE410AD1
:1035200030EE600A9B4880ED020A9B4890ED020A4B
:10353000D0ED010A30EE600A10EE101A08461CF0B9
:1035400059FF41EC1A0BB0EE4A0AF0EE6A0A12F08B
:1035500004FAB0EE409AF0EE609A51EC190B03E0D9
:1035600016E0D6E00FE10AE11CF054FA08EE100A6A
:10357000B0EE480A02F050FF8748D0ED010AB0EEE5
:10358000600A8748AC3012F0CFF9E06229E026E00B
:1035900000261CE07F484068B0420DDD06EB460087
:1035A0007D4901EB8001701C00EB40007A4A02EB80
:1035B00080030DCB0DC108E006EB4600764901EB18
:1035C00080000021016041608160701CC6B21E2E27
:1035D000E0DB70484068401E6E49486001E004200E
:1035E0006870D0E0484606F077FA00287ED122695C
:1035F000A168881A002801DB014600E041428A46A2
:103600002269A168881A002801DB014600E04142D6
:10361000226E571A2169A068884234DDBA4532DA31
:10362000484606F039FA216B401AA16DB0FBF1F261
:1036300001FB120104F59670A26850F82200A0EB7D
:10364000010B5448016F5648D0F8AC00484300EED7
:10365000100AF8EE400A524890ED2C1A80EE810ACA
:10366000DFED500A80EE201ABCEEC10A8DED020A91
:1036700002983C234FF47A720121CDE9000B4846B1
:1036800007F01CFE3BE02169A068884237DABA45A2
:1036900035DD484606F000FA216B401AA26DB0FBFA
:1036A000F2F102FB110104F59670A26850F82200B5
:1036B000A26D1044A0EB010B3648016F3848D0F8DA
:1036C000AC00484300EE100AF8EE400A344890ED92
:1036D0002C1A80EE810ADFED330A80EE201ABCEE50
:1036E000C10A8DED020A02983C2300E009E04FF484
:1036F0007A720121CDE9000B484607F0DFFD022078
:10370000687040E0484606F0E7F908B903206870A1
:1037100039E0214890ED020AD0ED010A30EE600A4E
:1037200010EE101A08461CF065FE41EC1A0BB0EEC4
:103730004A0AF0EE6A0A12F010F9B0EE409AF0EE82
:10374000609A51EC190B1CF065F908EE100AB0EE06
:10375000480A02F061FE1048D0ED010AB0EE600A9E
:103760000F48AC3012F0E0F8E06201200E4981F819
:10377000FC000A4800F0CAFB0420687003E0002047
:103780002870687000BF00BF03B0BDEC068BBDE8B9
:10379000F08F000080410020F852002020420020DD
:1037A0003029002000007042DC3F00202DE9FC5F42
:1037B0000746884614461D462878012803D16878B4
:1037C00008B9012068703946204600F007FBA06068
:1037D000687803286FD004DC012807D0022869D15B
:1037E000F9E0042868D0A028F9D166E08248B0F852
:1037F000B80F00284BD1207810B9A020687059E08C
:103800007E48D0ED120A7E4890ED020AB8EEC00A5A
:10381000F4EEC00AF1EE10FA0CDDD0ED020AF8EE7B
:10382000E00AB0EE600AAC3012F07EF8E16A0844BB
:10383000E0623FE0714890ED120AB5EEC00AF1EE89
:1038400010FA0DD26E48D0ED020AF8EEE00AB0EEA2
:10385000600AAC3012F068F8E16A081AE06229E008
:103860006748AC30E16A0AF0C7FF664880ED010A9C
:10387000D0ED010A624890ED020AB8EEC00A30EEBF
:10388000800A604880ED020AA020687012E05E485D
:10389000007F01280CD15B48D0ED010AB0EE600A30
:1038A0005748AC3012F040F8E062A020687001E0A8
:1038B000032068709DE095E097E0404606F00CF923
:1038C00000287CD12269A168881A002801DB014602
:1038D00000E0414289462269A168881A002801DB7C
:1038E000014600E04142226E561A2169A0688842D2
:1038F00033DDB14531DA404606F0CEF8216B401A8F
:10390000A16DB0FBF1F201FB120104F59670A26803
:1039100050F82200A0EB010A3B48016F3848D0F86C
:10392000AC00484300EE100AF8EE400A344890ED2F
:103930002C1A80EE810ADFED350A80EE201ABCEEEB
:10394000C10A10EE10BA3C234FF47A7201214046AE
:10395000CDE900BA07F0B2FC3AE02169A0688842DC
:1039600036DAB14534DD404606F096F8216B401A50
:10397000A16DB0FBF1F201FB120104F59670A26893
:1039800050F82200A26D1044A0EB010A1E48016FFE
:103990001B48D0F8AC00484300EE100AB8EE400ACD
:1039A000174890ED2C1AC0EE010A9FED180A80EE20
:1039B000801ABCEEC10A10EE10BA3C2300E009E008
:1039C0004FF47A7201214046CDE900BA07F076FC47
:1039D000022068700DE0404606F07EF808B9042029
:1039E000687006E00420687003E0002028706870AA
:1039F00000BF00BFBDE8FC9F90190020D80D00203B
:103A000030290020F8520020804100200000704240
:103A10002DE9FC5F0746884614461D462878012894
:103A200003D1687808B9012068703946204600F053
:103A3000D5F9A060687803287DD004DC012807D080
:103A4000022879D122E1042877D0A028F9D18FE08B
:103A50009748B0F8B80F002876D1207810B9A02088
:103A6000687084E09348D0ED120A934890ED020A02
:103A7000B8EEC00AF4EEC00AF1EE10FA0CDDD0ED9B
:103A8000020AF8EEE00AB0EE600AAC3011F04CFF2A
:103A9000E16A0844E0626AE0864890ED120AB5EEF9
:103AA000C00AF1EE10FA0DD28348D0ED020AF8EE0A
:103AB000E00AB0EE600AAC3011F036FFE16A081A95
:103AC000E06254E07C48AC30E16A0AF095FE7A4846
:103AD000D0ED020AF8EEE00A70EE200A90ED410AFD
:103AE000BDEEC00A10EE101A7148D0F8AC0F091ADA
:103AF0006F48D0F8A80F91FBF0F200FB121000EE17
:103B0000100AB8EEC00A30EEC00A6C4880ED020A16
:103B10006948AC30E16A0AF06FFE694880ED010A3D
:103B2000D0ED010A644890ED020AB8EEC00A30EE0A
:103B3000800A634803E0B0E0B6E0B1E004E080ED65
:103B4000020AA020687012E05C48007F01280CD1B6
:103B50005B48D0ED010AB0EE600A5748AC3011F076
:103B6000E3FEE062A020687001E0032068709BE043
:103B7000404605F0B1FF00287ED12269A168881A6D
:103B8000002801DB014600E0414289462269A16824
:103B9000881A002801DB014600E04142226E561AD5
:103BA0002169A068884233DDB14531DA404605F02D
:103BB00073FF216B401AA16DB0FBF1F201FB120102
:103BC00004F59670A26850F82200A0EB010A3B4869
:103BD000016F3948D0F8AC00484300EE100AF8EE07
:103BE000400A354890ED2C1A80EE810ADFED350A47
:103BF00080EE201ABCEEC10A10EE10BA3C234FF43E
:103C00007A7201214046CDE900BA07F057FB3AE04D
:103C10002169A068884236DAB14534DD404605F0B6
:103C20003BFF216B401AA16DB0FBF1F201FB1201C9
:103C300004F59670A26850F82200A26D1044A0EB23
:103C4000010A1E48016F1C48D0F8AC00484300EE42
:103C5000100AF8EE400A184890ED2C1A80EE810AFE
:103C6000DFED180A80EE201ABCEEC10A10EE10BA81
:103C70003C234FF47A7200E007E001214046CDE991
:103C800000BA07F01BFB022068700DE0404605F00B
:103C900023FF08B90420687006E00420687003E080
:103CA00000202870687000BF00BFBDE8FC9F0000C6
:103CB00090190020D80D00203029002080410020DC
:103CC000F8520020000070422DE9F04781468846F6
:103CD000144694F8680028B9484605F0DDFEE16A0C
:103CE000451A04E0484604F07FFDE16A451A404663
:103CF00005F0D2FE216B401AA16DB0FBF1F201FB81
:103D00001207002D01DBE56302E0606D2844E063EB
:103D1000002F01DB276402E0A06D384420640026F8
:103D20000AE004F5967050F82600216C814201DA11
:103D3000266104E0701C86B2206EB042F1DA00BF4A
:103D40000120BDE8F08700000178012905D1417804
:103D500019B9012141700021C1704178012904D0B5
:103D6000022911D003292CD11FE01749B1F86010A6
:103D70008AB21649A1F8F22B0222A1F8F02BA1F881
:103D8000F42B022141701CE01049B1F8F01B19B16D
:103D90000E49B1F8F41B39B901220C49A1F8F02BF6
:103DA000A1F8F42B032141700BE00849B1F8F01B96
:103DB00019B10649B1F8F41B11B900210170417025
:103DC00000BF00BF7047000020420020F009002023
:103DD0000146002008704870C870704770B52DED1E
:103DE000028B04460D46474890F87C0068B994ED74
:103DF0000F0AB8EEC00AD4ED1B0A80EE201ABCEE02
:103E0000C10A414880ED000A6EE0284605F044FEF4
:103E1000626FE16A1144884212D8284605F03CFEE0
:103E2000E16A401A00EE100AB8EEC00AD4ED1B0A8F
:103E300080EE201ABCEEC10A334880ED000A53E040
:103E4000304890F87D00012841D1284605F024FE35
:103E5000D4F88010884203DB2B49206E086043E0D1
:103E6000284605F019FEA26FD4F88010891A8842FE
:103E70001FD394ED1D0AB8EE400AD4ED1B0A80EE64
:103E8000208A284605F008FEA26FD4F88010891A0F
:103E9000401A00EE100AB8EE400AD4ED1B0A80EE7C
:103EA000201A38EE010ABCEEC00A174880ED000A5D
:103EB0001AE094ED1D0AB8EE400AD4ED1B0A80EE1C
:103EC000201ABCEEC10A104880ED000A0CE094ED07
:103ED0001D0AB8EE400AD4ED1B0A80EE201ABCEE93
:103EE000C10A094880ED000A0749206E0968884226
:103EF00002D20549206E086003480068BDEC028BC1
:103F000070BD0000204200209C00002001460120DE
:103F10000870002048700120087170470146002099
:103F20000871C87840B270472DE9F0412DED028B41
:103F300088B006460F461446224639463046FFF7FB
:103F4000C3FE2078012808D1607830B9A0206070C5
:103F50000120E070204600F069FA31462046FFF764
:103F60003DFFA0606078A02810D006DC062816D29D
:103F7000DFE800F0154E55FEFDFCA12810D0A22868
:103F800028D0B0287ED0C02809D1ABE1384605F052
:103F9000A3FD10B1384606F09DF9A120607033E210
:103FA000384605F099FDA0B92269A168881A002851
:103FB00001DB014600E0414288462269A168881A77
:103FC000002801DB014600E04142226E551AA22082
:103FD000607019E22269A168881A002801DB014695
:103FE00000E0414288462269A168881A002801DB66
:103FF000014600E04142226E551AB8F10A0F01DB7A
:104000000A2D02DA0120607001E0A2206070FBE15D
:10401000304605F061FD08B102206070F4E1A0684F
:104020006061D4ED1B8AA068401C04F5967151F8BC
:104030002000216C401A00EE100AB8EEC08AA06D74
:1040400000EBD071491000EE101AB8EEC00AB4EEC1
:10405000C80AF1EE10FA07D294ED160AB8EEC00ABB
:1040600030EE480AB0EE408AB5EEC08AF1EE10FAA2
:1040700015D2A06D00EBD071491000EE101AB8EE09
:10408000C00A00E088E0F1EE480AB4EEE00AF1EE82
:1040900010FA04DD9FEDE00AB0EE408A1BE0B5EEB9
:1040A000C08AF1EE10FA16D2A06D00EBD071491063
:1040B00000EE101AB8EEC00AF1EE480AB4EEE00ABB
:1040C000F1EE10FA07D894ED160AB8EE400A30EE79
:1040D000080AB0EE408A94F86800314605F0CEFB3D
:1040E0006063BDEEC80A10EE101A002901DB0A4613
:1040F00000E04A4200EE102AF8EEC00ABDEEE80ADF
:1041000010EE100A002801DB024600E0424200EEF9
:10411000102AB8EEC00A80EE801AC04A82ED001A5A
:1041200094ED0D0AB8EEC00A1046D0ED000A20EE5C
:10413000200ABB48D0ED000A20EE200ABDEEC00ADE
:1041400084ED0E0AB749A06B07F01BFCA063A06BBF
:10415000642801DA6420A063A06BA06300200390B0
:104160000490059001460690142202E040E129E106
:1041700015E0A06BCDE900200291A36B19463846EB
:1041800005F0D4FFBDEEC80A10EE101A384605F04F
:104190007BFDB020607037E10320607034E1304671
:1041A00005F09AFC28B9384606F094F8C0206070F3
:1041B00092E094F87C0090BB384605F08DFC18B96D
:1041C000A068606102206070304605F065FC626D99
:1041D000E16A114488427FD9304605F06DFC41F216
:1041E000CC010851384605F067FC41F2D001085176
:1041F00004F5805090ED340AF8EE400A90ED330A51
:10420000B8EE400A80EE801A80ED351A002084F85E
:104210007C0084F87D0020706070E0705CE0FFE757
:10422000304605F039FC626FE16A1144884208D2D9
:10423000384605F051FC88BBA068606102206070C0
:104240004AE094F87D00012841D1304605F024FC75
:10425000D4F88010884222DB304605F02DFC41F274
:10426000CC010851384605F027FC41F2D001085135
:1042700004F5805090ED340AF8EE400A90ED330AD0
:10428000B8EE400A80EE801A80ED351A002084F8DE
:104290007C0084F87D0020706070E0701CE0304687
:1042A00005F0FAFBA26FD4F88010891A884208D36F
:1042B000384605F011FC78B9A06860610220607092
:1042C0000AE0384606F006F80420607004E038463C
:1042D00006F000F8042060702078022801D1052043
:1042E000607091E0304605F0F7FBE8BB94F87C0085
:1042F00050BB304605F0D0FB626DE16A1144884244
:104300005FD9304605F0D8FB41F2CC010851384660
:1043100005F0D2FB41F2D001085104F5805090ED38
:10432000340AF8EE400A90ED330AB8EE400A80EE07
:10433000801A80ED351A002084F87C0084F87D0016
:1043400020706070E0703CE0304605F0A5FB626FC5
:10435000E16A1144884234D394F87D00012830D1B9
:10436000304605F099FB00E026E0D4F88010884242
:1043700027DB304605F0A0FB41F2CC01085138465E
:1043800005F09AFB41F2D001085104F5805090ED00
:10439000340AF8EE400A90ED330AB8EE400A80EE97
:1043A000801A80ED351A002084F87C0084F87D00A6
:1043B00020706070E07004E02079012801D1A02015
:1043C000607021E0184890F87D0001280AD130463D
:1043D00005F062FBA26FD4F88010891A884201D3DD
:1043E000A02060702078022801D1052060700BE0C9
:1043F000304605F071FB30B9384605F06BFF002000
:1044000020706070E07000BF00BF012008B0BDECFC
:10441000028BBDE8F081000000000000A400002035
:1044200094000020400D0300204200202DE9F043BD
:104430002DED0E8B85B00446002509E0002104F522
:10444000967040F8251004F6FC0040F825106D1C0D
:10445000B5F5FA7FF2DBE16D606D401A00EE100AEF
:10446000B8EE400AD4ED190A20EE201A94ED160A8F
:10447000B8EE400AD4ED170AF8EE600AD4ED191A26
:1044800000EEE10AF0EE000A20EE200AB4EEC01AB7
:10449000F1EE10FA03DC94F87C0001283AD1DFED4C
:1044A000FE8A9FEDFEEAA06D400000EE100AB8EE15
:1044B000400A94ED191AC0EE010A94ED170AB8EEFD
:1044C000400A70EEC09A94ED170AB8EE400A39EE31
:1044D000C00AF0EE000A80EE201ABCEEC10A84ED9C
:1044E0001D0A94ED1D0AB8EE400A39EEC00ABCEE72
:1044F000C00A84ED1E0A94F87C0038B9E16A606D48
:104500000844C4F88000012084F87D00012084F86C
:104510007C000CE0DFEDE28A9FEDE2EA94ED150A03
:10452000F8EE409A002084F87C0084F87D0094ED39
:10453000180AB8EEC00AC9EE800AC4ED1B0A94ED51
:10454000170AB8EE400AD4ED1B0A80EE201ABCEE22
:10455000C10A10EE107A206EC61B94ED160AB8EE52
:10456000400AD4ED170AF8EE600A94ED191AF0EE3D
:1045700040AA40EEC1AA94ED1B0AD4ED190A20EE20
:10458000209A268300EE106AB8EE400AF0EE6A0A1E
:1045900049EE400AB7EE000A30EE681A00EE106AE3
:1045A000B8EE400A21EE000A80EE80AA3AEE090A2F
:1045B000B5EEC00AF1EE10FA2FD219EE100A1BF078
:1045C00019FF41EC1C0B9FEDB80B53EC102B1BF0AB
:1045D000F3FC41EC1B0B1BF01DFA0AEE100A00EE77
:1045E000106AF8EE400AB0EE6A0A09EE600AC0EE00
:1045F0000A0A00EE106AB8EE401A80EE810AF7EE61
:10460000000A30EEC00AF0EE408AB7EE000AF0EE83
:10461000000A00EEE80AB0EE40EA00EE106AB8EEDA
:10462000400A28EE800AF0EE000A80EE201A8DED96
:10463000001A00EE106AB8EE400A68EE800AB0EE8A
:10464000001A80EE810ADDED000A30EE200A8DEDC1
:10465000010ADDED010A00EE106AB8EE400A4EEEE6
:10466000000ACDED020A00EE106AB8EE400A68EECC
:10467000800AB0EE001A80EE810ADDED020A30EE0B
:10468000200A8DED030A00EE106AB8EE400A68EECB
:10469000800AB0EE001A80EE810ADDED030A30EEEA
:1046A000200A8DED040A9DED000ABCEEC00A84EDDF
:1046B000230A9DED010ABCEEC00A84ED240A9DED9B
:1046C000020ABCEEC00A84ED250A9DED030ABCEE89
:1046D000C00A84ED260A9DED040ABCEEC00A84EDF2
:1046E000270AB0EE000A6AEE000A00EE106AB8EE81
:1046F000400A28EE800AC0EE80EA9DED000A8EEEA8
:10470000808A9FED6BDADFED6ADA4FF0000877E11F
:10471000B84508D800EE108AB8EEC00A29EE000AA3
:10472000F0EE40DA62E1A8EB0705002D28DDD4F8B1
:104730008C00A84224D3B6EE000A68EE000A00EE10
:10474000105AB8EEC00A60EE800A00EE105AB8EEB9
:10475000C00A20EE800AB0EE40DAB6EE000A68EE3B
:10476000000A00EE105AB8EEC00A60EE800A00EEB1
:10477000105AB8EEC00A20EE800A84ED370A2FE105
:10478000D4F88C00A8425CD290200059A84258D39B
:10479000D4ED370A9DED000A20EE081ADDED001A6F
:1047A00000EE105AB8EEC00A70EE611AB0EE600A60
:1047B00001EE210AF6EE000A28EE201ADDED001ABD
:1047C00000EE905AF8EEE00A70EEE10A21EE201AAF
:1047D000DDED001A00EE905AF8EEE00A70EEE10A04
:1047E00001EE600AB0EE40DAD4ED370A9DED000A22
:1047F00020EE081ADDED001A00EE105AB8EEC00ADD
:1048000070EE611AB0EE600A01EE210AF6EE000ABF
:1048100028EE201ADDED001A00EE905AF8EEE00ABC
:1048200070EEE10A21EE201ADDED001A00EE905A3A
:10483000F8EEE00A70EEE10A01EE600A84ED380A53
:10484000CEE090200059A8420CD294200059A842F2
:1048500008D394ED380AB0EE40DA94ED380A84EDCE
:10486000390ABDE094200059A8424CD29820005942
:10487000A84248D3B6EE000A68EE000A9DED021A7F
:1048800000EE105AB8EEC00A30EE410A60EE800A1F
:104890009DED021A0EE000008FC2F53E0AD7233DBF
:1048A0006666E63ECDCCCC3D000000000000F0BFC7
:1048B0000000000000EE105AB8EEC00A30EE411AB7
:1048C00094ED390A00EEC10AB0EE40DAB6EE000A05
:1048D00068EE000A9DED021A00EE105AB8EEC00A0A
:1048E00030EE410A60EE800A9DED021A00EE105A89
:1048F000B8EEC00A30EE411A94ED390A00EEC10A52
:1049000084ED3A0A6CE098200059A84264D29C20B9
:104910000059A84260D39DED030ADDED020A30EE96
:10492000601AD4ED3A0ADDED031A00EE105AB8EE23
:10493000C00A30EE610A60EE081AB0EE600A01EEBD
:10494000C10AF6EE000A28EE201ADDED031A00EE89
:10495000905AF8EEE00A70EEE10A21EE201ADDED41
:10496000031A00EE905AF8EEE00A70EEE10A01EE4A
:10497000200AB0EE40DA9DED030ADDED020A30EECA
:10498000601AD4ED3A0ADDED031A00EE105AB8EEC3
:10499000C00A30EE610A60EE081AB0EE600A01EE5D
:1049A000C10AF6EE000A28EE201ADDED031A00EE29
:1049B000905AF8EEE00A70EEE10A21EE201ADDEDE1
:1049C000031A00EE905AF8EEE00A70EEE10A01EEEA
:1049D000200A84ED3B0A03E01FED4B0AB0EE40DAFB
:1049E0003DEE2D0A30EE090AF0EE40DABDEEED0A9A
:1049F00010EE100A04F5967141F8280008F101083C
:104A0000206E4045BFF684AE04F59670226E50F8D5
:104A10002200A16DA1EB000900EE109AF8EEC00A89
:104A200000EE106AB8EE400A80EE801AB0EE41DA6D
:104A300001252EE0E91904F5967050F8210000EEEA
:104A4000100AF8EEC00A00EE105AB8EEC00A40EEA6
:104A50000D0ABDEEE00A10EE100AEA1904F596718F
:104A600041F82200E91904F5967050F82120E81960
:104A7000401E04F5967151F82000824208DAE819C8
:104A8000401E51F82010EA1904F5967040F82210E3
:104A90006D1CB542CED9D4F82C01C4F8FC08002511
:104AA0000CE004F59670691C50F8211050F82500B0
:104AB000091A04F6FC0040F825106D1C206EA8426F
:104AC000EFDC0020E0642065002507E004F6FC0030
:104AD00050F82500216D084420656D1C206EA84209
:104AE000F4DC012005B0BDEC0E8BBDE8F08338B5D9
:104AF0000446FA2C08D100200C230A22072100903A
:104B00000120FDF701FE13E0B4F57A7F08D1002003
:104B100003230A22072100900120FDF7F5FD07E09D
:104B2000002006230A22072100900120FDF7ECFD5A
:104B300038BD000000B50B490B4810F0FDFF0B49D4
:104B4000098888420BD10749891E074810F0F4FFF5
:104B50000649891E0988884201D1002000BD4FF016
:104B6000FF30FBE7FEFF030000000408FEFF07081C
:104B700000B50B490B4810F0DFFF0B49098888424C
:104B80000BD10749891E074810F0D6FF0649891E38
:104B90000988884201D1002000BD4FF0FF30FBE7BB
:104BA000FEFF030000000808FEFF0B0800224FF480
:104BB000803105E00A48006800F0800000B103E0A1
:104BC000081EA1F10101F5D100BF09B9032070470A
:104BD00040F2FF50024B1B1D18601046F7E7000023
:104BE000342C0140024605E01548016801F04500FB
:104BF00000B100E0F8E700BF01F0040028B1042094
:104C00000F4B1B1D18600320704701F0010020B1FD
:104C100001200B4B1B1D1860F6E70948243800687B
:104C2000904201D01020EFE740F2FF50044B1B1DD3
:104C3000186003482038006808231840C0B2E3E732
:104C4000342C014010B500204FF4803205E0164BA3
:104C5000196801F0450303B103E0131EA2F101023C
:104C6000F5D100BF12B101F004034BB103200E4B8C
:104C70001B1D1B6843F004030B4C241D236010BD57
:104C800001F0010343B10120074B1B1D1B6843F0DA
:104C90000103054C241D236040F2FF53024C241DE8
:104CA000236000BFEBE70000342C014005E00E4814
:104CB000016801F0450000B100E0F8E700BF01F035
:104CC000040048B10848001D006840F00400064A8E
:104CD000121D10600320704740F2FF50024A121D5F
:104CE00010600020F7E70000342C014070B5034647
:104CF0000C46002505E02448026802F0450000B19A
:104D000000E0F8E700BF02F0040048B11E48001DB3
:104D1000006840F004001C4E361D3060032070BD5A
:104D200002F0010048B11848001D006840F0010081
:104D3000154E361D30600120F1E713482438006815
:104D4000984201D01020EAE740F2FF500E4E361D87
:104D500030600D482038016801F4604018B9080C33
:104D600020802846DBE701F4005008B11320D6E785
:104D700001F4804008B11020D1E701F4004008B1EF
:104D80000F20CCE72846CAE7342C014010B500209C
:104D90004FF4803205E0134B196801F0450303B16D
:104DA00003E0131EA2F10102F5D100BF12B101F020
:104DB00004034BB103200B4B1B1D1B6843F0040382
:104DC000084C241D236010BD01F0400343B10020B6
:104DD000044B1B1D1B6843F04003024C241D236041
:104DE00000BFF0E7342C014010B504462848B0F865
:104DF0008C01012808D127480078012804D104F04B
:104E000013FD012800D120702078012805D1607899
:104E100018B9012060700020A0706078012804D0CB
:104E200002281AD0032831D128E01B48D0ED130AFC
:104E3000174890ED640AB8EEC00AF4EEC00AF1EE2D
:104E400010FA09DB00220921104606F06DFF0CF074
:104E500035F8A0600220607018E00CF02FF8A1680F
:104E6000401A0A21B0FBF1F0322806D901220921AB
:104E7000002006F059FF0320607007E00548007825
:104E800018B9002020706070A07000BF00BF10BD76
:104E90003029002020420020D80D002010B52DED33
:104EA000068B04462078012806D1607820B90120BD
:104EB00060700020A070E0702078012801D100F01F
:104EC0004FFA6078012802D002287CD1BCE0022190
:104ED000002005F07FFE002876D161480078012887
:104EE0002BD15F48406D5E4AD26B811A5D4809F054
:104EF00083FC5C48AC38D0F8D8015B49D1F85C142D
:104F000048433C21B0FBF1F04FF47A71B0FBF1F172
:104F10005648D0F8A82FD0F8A40F1044411A53488F
:104F2000D0F8A80F91FBF0F200FB121000EE900AEF
:104F3000F8EEE00A30EE608A01E09FED4D8A18EE4F
:104F4000100A1BF057FA41EC1A0BB0EE4A0AF0EEC9
:104F50006A0A10F002FDB0EE409AF0EE609A9FED02
:104F6000450B53EC102B51EC190B1BF023F903D21A
:104F70009FED3F0AB0EE408A0A20B0EE480AFBF7E8
:104F80006DFF3E4880ED090A3D4A13460BCB0C32BB
:104F90000BC204F02DFC3348AC38D0F8D8013249AC
:104FA000D1F85C1448433C21B0FBF1F04FF47A7126
:104FB000B0FBF1F12D48D0F8A82FD0F8A40F104481
:104FC000411A2A4801E047E03DE0D0F8A80F91FBE4
:104FD000F0F200FB121000EE900AF8EEE00A30EE5C
:104FE000200A2648D0ED090A30EE600A244880EDF8
:104FF000010AD0ED010A1B48AC3890ED020AB8EE68
:10500000C00A30EE800A1E4880ED020A1748D0F828
:10501000AC0F41421548D0F8A80F91FBF0F200FB0D
:10502000121000EE100AB8EEC00A1548D0ED020AC0
:1050300030EE200A114880ED020A4068401C0F49FA
:1050400048600220607007E00221002005F0C2FDE8
:10505000012800D1607000BF00BFBDEC068B10BD01
:1050600020420020DC290020F009002090190020B7
:1050700000000000000000000000144080410020FB
:10508000F852002070B52DED0A8B044620780128D7
:1050900006D1607820B9012060700020A070E07017
:1050A0002078012801D100F05BF96078012802D056
:1050B00002287DD13AE10221002005F08BFD80B16C
:1050C00004F096FB9F48D0ED160A70EE600A9E48E9
:1050D00090ED020AB8EEC00AF4EEC00AF1EE10FA42
:1050E00067DB994890ED410ABDEEC00A10EE101A38
:1050F000A0F57A60D0F8A80F91FBF0F200FB121235
:105100009148D0F8D8019149D1F85C1448433C212A
:10511000B0FBF1F04FF47A71B0FBF1F18C48D0F8AC
:10512000A83FD0F8A40F1844411A8948D0F8A80F16
:1051300091FBF0F300FB1310101A00EE100AB8EE0A
:10514000C00A804880ED180A90ED180AB5EEC00A32
:10515000F1EE10FA36DBD0ED180A7B4890ED030A29
:10516000B8EEC00AF4EEC00AF1EE10FA10D804F05E
:105170003FFB7548D0ED030AF8EEE00A30EE200A56
:105180007048D0ED180A30EE600A80ED020A47E060
:1051900004F02EFB6C48D0ED020AF8EEE00A70EE47
:1051A000200A90ED030AB8EEC00A30EE800A01E052
:1051B000C4E0BAE06348D0ED180A30EE600A80ED32
:1051C000020A2DE05F4890ED180A10EE101A08460A
:1051D0001BF010F941EC1C0BB0EE4C0AF0EE6C0A1F
:1051E00010F0BBFBB0EE40AAF0EE60AA04F000FBAA
:1051F0005548D0ED030AF8EEE00A30EE200A10EE32
:10520000105A28461BF0F6F841EC1B0B53EC1A2BF6
:105210001AF032FC41EC190B1AF0FCFB494988608A
:105220004C480078012832D14A48C06B4949496D41
:10523000B0FBF1F201FB12004649496D0D1A2946F7
:105240004148AC3009F0D8FA3F48D0F8D8013F497E
:10525000D1F85C1448433C21B0FBF1F04FF47A7173
:10526000B0FBF1F13A48D0F8A82FD0F8A40F1044C1
:10527000411A3748D0F8A80F91FBF0F200FB12104A
:1052800000EE900AF8EEE00A30EE608A01E09FED51
:10529000328A0A20B0EE480AFBF712FE294880ED58
:1052A000090A2E4803460ECB0C300EC004F0A0FABB
:1052B0002548D0F8D8012549D1F85C1448433C2151
:1052C000B0FBF1F04FF47A71B0FBF1F12048D0F867
:1052D000A82FD0F8A40F1044411A1D48D0F8A80FE9
:1052E00091FBF0F200FB121000EE900AF8EEE00ADB
:1052F00030EE200A1348D0ED090A30EE600A174854
:1053000080ED010AD0ED010A0F4890ED020AB8EED7
:10531000C00A30EE800A114880ED020A0948406850
:10532000401C084948600220607007E0022100200C
:1053300005F050FC012800D1607000BF00BFBDEC3B
:105340000A8B70BD8041002030290020F009002028
:10535000901900202042002000000000F852002098
:1053600010B52DED068B0221002005F033FC08B9A5
:10537000012000E0002004462146042009F0ACFA98
:1053800078B304F035FA3948D0ED160A30EE600AE9
:10539000BCEEC00A364880ED940A04F029FA33487E
:1053A00080ED160A3249D1F85022A1F57A61D1F880
:1053B000A81F501A002801DB014600E041420529E0
:1053C00010DD2C480078401C2A49087008460078F7
:1053D00003280ADB00200870062200210220FBF7C8
:1053E00093FC02E00020234908702148D0F81811EE
:1053F000022006F0BFFA2049D1F8A81F00FB01F4F3
:1054000020461AF072FD41EC180B04F0F1F9174830
:10541000D0ED160A30EE600A10EE104A20461AF05F
:10542000E9FF41EC1A0BB0EE4A0AF0EE6A0A10F0FE
:1054300094FAB0EE409AF0EE609A53EC182B51ECCF
:10544000190B1AF0B7FE0DD804F0D2F9074880ED19
:10545000160A0748D0F8180120B1052200210220C1
:10546000FBF752FCBDEC068B10BD00008041002014
:1054700030290020240000209019002010B53E485B
:1054800009F070FB3D4A01210020FEF74DFD3C482C
:1054900002F094FF3A48183001F032FC3948B0F875
:1054A000B80F20B93648843801F068F803E0344872
:1054B0008438FFF7F3FC32489C3808F0D3F92E48C3
:1054C0000C3006F091FD2E4B183B2C4A0121002098
:1054D000FEF76CF92848183007F014F92A4804F050
:1054E00020F800212748A0F8BE1F4FF47A71C0F8B9
:1054F000EC1FD0F8EC2FA0F57A60D0F8E803022872
:1055000001D0012000E000200146042019F092FEA5
:1055100020B100220221104606F006FC1B48D0F8FC
:10552000E803022826D10221002005F053FB08B928
:10553000012000E00020044621460B2009F0CCF9B0
:1055400020B100220D21104606F0EEFB0D210020B7
:1055500006F0DCFB08B9012000E0002004466422CC
:105560002146082019F066FE20B101220D210020FD
:1055700006F0DAFB10BD0000E83F002020420020CA
:10558000504100209019002044090020F00900201B
:105590000CB50146534800EBC1108069B0F5FA6FB5
:1055A00005D24FF4FA624F4800EBC11082614D48BA
:1055B00000EBC11090ED060AB8EE400AF6EE000AC4
:1055C00020EE200A9FED481AC0EE010A454800EB84
:1055D000C11090ED030AB8EE400A30EE600AF6EE14
:1055E000000A30EE200ABDEEC00A8DED000A9DEDE6
:1055F000000AB8EE400AF6EE000A60EE200A9FEDBF
:105600003A1A80EE810AF6EE000A30EE200ABDEE6C
:10561000C00A8DED010A43E0324800EBC11090ED65
:10562000060AB8EE400AF6EE000A20EE200A9FEDC8
:105630002E1AC0EE010A9DED000AB8EE400A30EEC7
:10564000600AF6EE000A30EE200ABDEEC00A8DEDCB
:10565000000A244800EBC110009A0069824203D37B
:105660000098B0F1E04F04D91E4800EBC11000696A
:1056700000909DED000AB8EE400AF6EE000A60EEDA
:10568000200A9FED191A80EE810AF6EE000A30EE2C
:10569000200ABDEEC00A10EE100A019A10440190D3
:1056A000104800EBC11090ED060AB8EE400AF6EE85
:1056B000000A60EE200A9FED0D1A80EE810AF6EED8
:1056C000000A30EE200ABDEEC00A10EE100A054AAC
:1056D00002EBC11212691044009A90429CD30198C7
:1056E0000CBD0000104A012000007A440000FA447A
:1056F00010B50446204608F093FEFD4901EBC411A5
:105700004865FB4800EBC410416DF94800EBC4103C
:10571000806D814204D10020F54901EBC41148702D
:10572000F34800EBC410007800287DD1F04800EB6E
:10573000C4104078022804D0042876D0062875D1F9
:10574000F1E0EB4800EBC410416DE94800EBC410F8
:10575000006F0144E64800EBC410806F0144E44848
:1057600000EBC410806D814265D8E14800EBC410A5
:10577000416DDF4800EBC410C06D81426DD3DC4841
:1057800000EBC41090ED050AB8EE400AF6EE000AF0
:1057900020EE200A9FEDD71AC0EE010AB6EE000AED
:1057A00030EE800ABDEEC00A10EE100AD04901EBBF
:1057B000C411C96C0844CE4901EBC411C864CC487B
:1057C00000EBC410C16CCA4800EBC410C068814231
:1057D00004D2C74800EBC410C06C03E0C44800EB1F
:1057E000C410C068C24901EBC411C864C04800EBD2
:1057F000C41090ED130AB8EE400AF6EE000A60EE0F
:10580000200A9FEDBC1A80EE810AF6EE000A30EE07
:10581000200ABDEEC00A10EE100AB54901EBC41112
:10582000C96D0144B24802E0E3E017E0E0E000EBBC
:10583000C410C16511E0AE4800EBC410006F60B148
:10584000AB4800EBC410C068A94901EBC411C8649F
:105850000420A74901EBC4114870C9E0A44800EB3B
:10586000C410416DA24800EBC410806F0144A048F1
:1058700000EBC410806D814254D39D4800EBC410EE
:10588000816E9B4800EBC410006F0144984800EB08
:10589000C410C165964800EBC41090ED060AB8EE3E
:1058A000400AF6EE000A20EE200ADFED920A80EEB2
:1058B000201AB6EE000A71EE000A8D4800EBC41003
:1058C00090ED130AB8EE400A30EE600ABDEEC00A51
:1058D000874800EBC41080ED130A854800EBC41024
:1058E00090ED130AB8EE400AF6EE000A20EE200A08
:1058F0009FED801AC0EE010AB6EE000A30EE800A73
:10590000BDEEC00A10EE100A794901EBC411C96D51
:105910000144774800EBC410C1650620744901EBCF
:10592000C411487064E0724800EBC410416D7048C7
:1059300000EBC410C06D814259D36D4800EBC41018
:1059400090ED060AB8EE400AF6EE000A20EE200AB4
:10595000DFED680A80EE201AB6EE000A71EE000A4A
:10596000634800EBC41090ED130AB8EE400A30EE25
:10597000600ABDEEC00A5E4800EBC41080ED130A59
:105980005B4800EBC410C16C594800EBC4100069BF
:10599000814204D9564800EBC410C06C03E054485F
:1059A00000EBC4100069524901EBC411C8645048AF
:1059B00000EBC41090ED130AB8EE400AF6EE000AB0
:1059C00020EE200ADFED4B0A80EE201AB6EE000A28
:1059D00031EE000ABDEEC00A10EE100A444901EB98
:1059E000C411C96D0144424800EBC410C16500BF39
:1059F000FDE33F4800EBC410407808287CD2DFE884
:105A000000F07B0483F8F7F6F5F4394800EBC41096
:105A1000416D374800EBC410406E81426ED234486D
:105A200000EBC410416D324800EBC410C06D8142E0
:105A300069D32F4800EBC41090ED0D0AB8EE400A70
:105A4000F6EE000A60EE200A9FED2A1A80EE810A27
:105A5000F6EE000A30EE200ABDEEC00A10EE100A83
:105A6000234901EBC411C96C0844214901EBC4115D
:105A7000C8641F4800EBC41090ED130AB8EE400A4A
:105A8000F6EE000A60EE200A9FED1A1A80EE810AF7
:105A9000F6EE000A30EE200ABDEEC00A10EE100A43
:105AA000134901EBC411C96D0144114800EBC41046
:105AB000C1650F4800EBC410416B0D4800EBC410EA
:105AC00090ED0B0AB8EE400AF6EE000A60EE200AEE
:105AD000B7EE001AB6EE000A00EE810ABDEEC00A6B
